:100000000C94BC000C94DD000C94DD000C94DD001D
:100010000C94DD000C943B020C94DD000C94DD008C
:100020000C94DD000C94DD000C94DD000C94DD00DC
:100030000C94DD000C94DD000C94DD000C94DD00CC
:100040000C94DD000C94DD000C94DD000C94DD00BC
:100050000C94DD000C94DD000C94DD000C94DD00AC
:100060000C94DD000C94DD000C94DD000C94DD009C
:100070000C94DD000C94DD000C94DD000C94DD008C
:100080000C94DD000C94DD000C94DD000C94DD007C
:100090000C94DD000C94DD000C94DD000C94DD006C
:1000A0000C94DD000C94DD000C94DD000C94DD005C
:1000B0000C94DD000C94DD000C94DD000C94DD004C
:1000C0000C94DD000C94DD000C94DD000C94DD003C
:1000D0000C94DD000C94DD000C94DD000C94DD002C
:1000E0000C94DD00090222000101008019090400BE
:1000F000000103000000092101010001221D000789
:100100000581030800641201100100000008C016F8
:10011000E8030001010200011E03470039005800F6
:10012000200032003000200042007500740074008E
:100130006F006E007300200363006F0064006500B1
:1001400061006E0064006C006900660065002E00AE
:1001500063006F006D000403090405010905A10097
:10016000050919012914150025019514750181024D
:10017000950175048103C00011241FBECFEFD1E2A9
:10018000DEBFCDBF00E00CBF12E0A0E0B2E0EEE2C7
:10019000F8E000E00BBF02C007900D92A230B1075B
:1001A000D9F712E0A2E0B2E001C01D92AD33B10771
:1001B000E1F70E947D030C9415040C940000CF938A
:1001C000C62F2091120224FF07C02091130238E8A5
:1001D00023272093130203C02AE520931202DC0197
:1001E000E4E1F2E09C2F9E0F8D918193892F8E1B6D
:1001F0001816D4F36C2F84E192E00E943702CC5F92
:10020000C0931202CF910895EF92FF92CF93809105
:100210002302835087FDB0C09091200220911F02DD
:100220002D3209F0A7C0883009F0A4C08CE0E82E78
:10023000F12CE91AF10887E292E0E80EF91E83EC4E
:10024000809307028AE58093000210920202F70170
:100250008081807621F0C7010E945C0381C0F70194
:100260009281109210028181811106C010921102B8
:1002700020E132E082E070C0853019F490932402CE
:1002800068C0863009F04FC0F7018381813041F4A6
:1002900086E091E0909322028093210282E13FC0A8
:1002A000823041F484EE90E0909322028093210208
:1002B00082E235C08330F1F4911108C086E591E007
:1002C000909322028093210284E029C0913041F46E
:1002D00086E391E0909322028093210280E21FC086
:1002E0009230E1F488E191E0909322028093210220
:1002F0008EE115C0813241F486EF90E090932202A6
:100300008093210289E00BC0823241F48AE591E0BA
:1003100090932202809321028DE101C080E090E45D
:10032000909302021DC0883069F0893019F49093CF
:1003300026020FC08A3049F08B3059F48BE4809349
:10034000130207C026E232E002C020E132E081E081
:1003500003C020E132E080E03093220220932102AA
:10036000F7019781911104C09681981708F4892F9D
:1003700080930102109223028091000284FF47C003
:10038000809101028F3F09F442C0C82F893008F0E4
:10039000C8E08C1B809301028091070298E88927AE
:1003A00080930702CC2331F1209121023091220267
:1003B0008091020286FF0BC0F901A8E0B2E08C2F09
:1003C0008A0F94919D9331968A13FBCF09C0D9016E
:1003D000E8E0F2E08C2F8E0F9D9191938E13FCCF6D
:1003E0008C2F815090E00196820F931F90932202F0
:1003F000809321026C2F88E092E00E943702CC5F4C
:10040000CC3019F08FEF80930102C093000284E199
:100410009CB1947131F48150D9F71092240210925A
:100420001E02CF91FF90EF900895EAE6F0E0808100
:1004300083608083EC9A8BE4809313028AE5809337
:1004400012020895A82FB92F80E090E041E050EA11
:10045000609530E009C02D9182279795879510F01F
:1004600084279527305EC8F36F5FA8F30895EADF0D
:100470008D939D930895CF93CFB7CF93DF93C3957B
:10048000629BE9F7629B0BC0629B09C0629B07C03D
:10049000629B05C0629B03C0629B01C08BC06F93CF
:1004A000C0912002DD27C95DDD4F2F9365E5629B7A
:1004B00003C02F916F91E6CF0F931F934F9320E0CE
:1004C00040E15F930CB1047102FB27F93F9350E0C8
:1004D0003BE039C0147140642F77012F5F5F1EC06D
:1004E00040681CB114712F7752501FC040640CB18A
:1004F0002F770471D1F15F5F00C023C040621CB14F
:100500002F77147191F15F5F00C025C0047110272F
:10051000515012F45D5F0000115027952C3F1CB123
:10052000C8F614710127015027952C3FC8F64227C1
:1005300049930CB1047110274F73115027952C3F2C
:10054000A8F6469546951CB1147179F00127015023
:1005500027952C3F98F66B5A60F331500CB1B0F6EA
:1005600000C010E11CBB002719C03B503195C31BD4
:10057000D04010E11CBB0881033C09F10B34F9F0B9
:1005800020911E021981110F1213EDCF4A81441FD1
:10059000093651F10D3211F0013E29F70093250281
:1005A0003F915F914F911F910F912F916F91CCB31C
:1005B000C4FD65CFDF91CF91CFBFCF91189520912A
:1005C0002502222369F310912302112391F534307F
:1005D00092F13093230220931F02109120023BE0FE
:1005E000311B3093200227C00091230201300CF50B
:1005F0000AE54F7049F43091000234FD1DC00093AC
:100600000002C7E0D2E01CC03091120234FD14C0D9
:1006100000931202C3E1D2E013C0052710E000C02E
:1006200000000EB91AC0052710E0221F1DC010E0FF
:1006300021C04AE502C032ED432FC4E1D0E032E0F0
:100640001DB11461729A0EB11DB954E120E865E341
:1006500020FF05270EB9279517951C3FF0F66695E4
:10066000B8F7B1F720FF05270EB9279517951C3F5E
:10067000D0F62795179517FF052700001C3F0EB9E8
:10068000B0F629913A9519F70B7E10912402110FBB
:10069000C651D0400EB911F010931E0210E11CBBE0
:1006A00004601DB11B7E402F4B7E54E05A95F1F73C
:1006B0000EB91DB94EB974CFFC01808180768032AD
:1006C000D1F48181813041F483E092E09093220261
:1006D0008093210283E00895823041F486E092E025
:1006E000909322028093210281E008958A3019F4C8
:1006F00083818093060280E008958FEF81B912B85C
:1007000014B890E395B99FE397B990EC98B990E845
:1007100090930A019FE790930B0194E09DB99EB9D5
:1007200013BA9DE294BB10920401809305018FE3FC
:100730009CE90197F1F700C000002EE088E190E00D
:100740000FB6F894A895809360000FBE20936000C8
:100750000E9415026A9A8AEFA895EFE3FFE13197AC
:10076000F1F700C000008150B9F76A987894A89515
:100770000E9404018091120284FFF9CFE2B3E09558
:1007800026B12095207C43B14095A42FA0738E2FD5
:100790008D7290E080959095BC016470772762958A
:1007A000660F607EE0FF02C0F0E001C0F0E430E0E0
:1007B00020953095407150E0559547957E2F787083
:1007C000770F742B762BA9014074552755954795C3
:1007D000742B20783327B5E035952795BA95E1F746
:1007E000722B8072992724E0959587952A95E1F7D9
:1007F000782B8A2F90E08095909585FB882780F94B
:10080000782B7F2B70930302809103018095809356
:1008100004028091090180958F738093050263E043
:0E08200083E092E00E94DF00A2CFF894FFCFA9
:02082E005AFF6F
:00000001FF
