:100000005FC0D3C178C077C076C075C074C073C0FC
:1000100072C071C070C06FC06EC06DC06CC06BC06C
:100020006AC069C068C067C066C065C064C063C09C
:1000300062C061C0090222000101008019090400A8
:10004000000103000000092101010001221D000739
:100050000581030800641201100100000008C016A9
:10006000E803000101020001160367005300770056
:10007000690074006300680020003100380020032C
:1000800063006F006400650061006E0064006C0036
:100090006900660065002E0063006F006D000403B8
:1000A000090405010905A100050919012912150016
:1000B0002501951275018102950675018103C00025
:1000C00011241FBECFEFD4E0DEBFCDBF11E0A0E012
:1000D000B1E0EAE1F7E002C005900D92A230B1076D
:1000E000D9F711E0A2E0B1E001C01D92AD33B10734
:1000F000E1F7B6D210C384CFCF93C62F209112015F
:1001000024FF07C02091130138E82327209313010F
:1001100003C02AE520931201DC01E4E1F1E09C2F09
:100120009E0F8D918193892F8E1B1816D4F36C2FFF
:1001300084E191E036D1CC5FC0931201CF91089554
:10014000EF92FF92CF9380912301835087FDAFC040
:100150009091200120911F012D3209F0A6C0883016
:1001600009F0A3C08CE0E82EF12CE91AF10887E22F
:1001700091E0E80EF91E83EC809307018AE58093F5
:10018000000110920201F7018081807619F0C70109
:1001900046D281C0F70192811092100181818111B4
:1001A00006C01092110120E131E082E070C085307C
:1001B00019F49093240168C0863009F04FC0F7010C
:1001C0008381813041F486E590E090932201809311
:1001D000210182E13FC0823041F484E390E09093BA
:1001E00022018093210182E235C08330F1F4911124
:1001F00008C08EE990E0909322018093210184E071
:1002000029C0913041F48EE790E0909322018093D1
:10021000210180E21FC09230E1F488E690E09093E3
:1002200022018093210186E115C0813241F486E4E8
:1002300090E0909322018093210189E00BC08232EB
:1002400041F482EA90E090932201809321018DE1B4
:1002500001C080E090E4909302011DC0883069F0F5
:10026000893019F4909326010FC08A3049F08B3001
:1002700059F48BE48093130107C026E231E002C0F9
:1002800020E131E081E003C020E131E080E0309303
:10029000220120932101F7019781911104C09681D9
:1002A000981708F4892F80930101109223018091FF
:1002B000000184FF46C0809101018F3F09F441C0D5
:1002C000C82F893008F0C8E08C1B80930101809111
:1002D000070198E8892780930701CC2331F1209109
:1002E0002101309122018091020186FF0BC0F901AA
:1002F000A8E0B1E08C2F8A0F94919D9331968A13D8
:10030000FBCF09C0D901E8E0F1E08C2F8E0F9D9161
:1003100091938E13FCCF8C2F815090E00196820F29
:10032000931F90932201809321016C2F88E091E02C
:1003300038D0CC5FCC3019F08FEF80930101C0939F
:10034000000184E199B1967031F48150D9F710928F
:10035000240110921E01CF91FF90EF900895E9E6DD
:10036000F0E0808182608083E89A8BE480931301BF
:100370008AE5809312010895A82FB92F80E090E0BC
:1003800041E050EA609530E009C02D9182279795B1
:10039000879510F084279527305EC8F36F5FA8F328
:1003A0000895EADF8D939D930895CF93CFB7CF93B0
:1003B000C395499BE9F7499B09C0499B07C0499BE5
:1003C00005C0499B03C0499B01C0A3C0DF93C091F6
:1003D0002001DD27C95DDE4F499B02C0DF91EBCFD5
:1003E0002F930F931F9309B12FEF01FB20F94F9328
:1003F0003F9319B14FEF012701FB21F93BE031C0D9
:100400004E7F012F19B1216028C0102F4D7F22602F
:10041000000009B129C04B7F2460012F000019B1F1
:100420002BC019B1477F28602AC04F7E09B12061D7
:100430002CC04F7D19B120622FC04F7B09B12064C1
:1004400032C0422709B149934FEF0000102711FB3A
:1004500020F919B11670C9F1297F91F2012701FB2A
:1004600021F909B1237F89F2315058F1102711FB8E
:1004700022F919B1277E79F2012701FB23F92F7C9C
:1004800081F209B1102711FB24F92F7971F200C014
:1004900019B1012701FB25F92F7359F200C009B1E9
:1004A000102711FB26F9223040F200C019B10127B4
:1004B00001FB27F9243028F64F77206819B1000096
:1004C000F9CF11E01CBB002719C03B503195C31B6D
:1004D000D04011E01CBB0881033CF9F00B34E9F07B
:1004E00020911E011981110F1213EDCF4A81441F73
:1004F000093641F10D3211F0013E29F70093250133
:100500003F914F911F910F912F91DF91CCB3C0FD7F
:100510004FCFCF91CFBFCF911895209125012223A6
:1005200079F310912301112369F534306AF1309386
:10053000230120931F01109120013BE0311B3093D8
:10054000200122C0009123010130E4F40AE54F703C
:1005500049F43091000134FD19C000930001C7E057
:10056000D1E018C03091120134FD10C00093120187
:10057000C3E1D1E00FC02795A8F45150A9F4220F90
:100580000000F9CF4AE503C042ED01C0432FC4E1AA
:10059000D0E032E01AB11660599A1AB90BB120E4D2
:1005A00016E05F93012756E00BB9279520F45150D0
:1005B00021F4220FF9CF012756E000003B5A0BB976
:1005C000D0F2279528F4515029F4220F0000F9CFDA
:1005D000012756E027950BB920F4515021F4220F42
:1005E000F9CF012756E0299133230BB921F6097F72
:1005F00010912401110FC651D0400BB911F0109386
:100600001E0111E01CBB02601AB1197F402F497F07
:100610005F9100C000C00BB91AB94BB971CFFC0192
:10062000808180768032D1F48181813041F483E011
:1006300091E0909322018093210183E0089582301C
:1006400041F486E091E0909322018093210181E0C2
:1006500008958A3019F483818093060180E008951B
:1006600014B88FE385B917B888B91AB889EF8BB970
:100670008FE295E70197F1F700C000002EE088E1D6
:1006800090E00FB6F894A895809360000FBE209379
:10069000600065DE519A8AEFA895EFE6F7E13197A1
:1006A000F1F700C000008150B9F751987894A895EF
:1006B00047DD8091120184FFFACF33B186B1809576
:1006C00029B1209520FBEE24E0F8F12C96E0EE0C09
:1006D000FF1C9A95E1F7922F98709295907F9E2932
:1006E00030953F73932B90930301982F9295907FB1
:1006F00022952F70922B90930401807390E024E058
:10070000959587952A95E1F78093050163E083E04D
:0A07100091E0F2DCCCCFF894FFCFAB
:02071A005AFF84
:00000001FF
