:100000005CC0CCC175C074C073C072C071C070C018
:100010006FC06EC06DC06CC06BC06AC069C068C084
:1000200067C066C065C064C063C062C061C060C0B4
:100030005FC05EC0090222000101008019090400AE
:10004000000103000000092101010001221D000739
:100050000581030800641201100100000008C016A9
:10006000E803000101020001160367005300770056
:1000700069007400630068002000310038001A0332
:10008000670072007500760069006E003900780024
:100090002E0063006F006D000403090405010905CB
:1000A000A1000509190129121500250195127501F4
:1000B0008102950675018103C00011241FBECFEF98
:1000C000D4E0DEBFCDBF11E0A0E0B1E0ECE2F7E0AC
:1000D00002C005900D92A230B107D9F721E0A2E04D
:1000E000B1E001C01D92AD33B207E1F7C4D21CC329
:1000F00087CFCF93C62F2091120124FF1CC02091DF
:10010000130138E8232720931301E4E1F1E09C0177
:10011000D9012F5F3F4F9C9191939C2F921B980F79
:100120001916B4F36C2F84E191E034D1CC5FC09305
:100130001201CF9108952AE520931201E6CFCF93C3
:10014000DF9380912301835087FD27C090911F0189
:100150009D3209F58830F9F480912001CCE0D0E09F
:10016000C81BD109C95DDE4F83EC809307018AE586
:1001700080930101109202018881807609F460C0A9
:10018000CE0158D29F81911104C09E81981708F426
:10019000892F80930001109223018091010184FF37
:1001A00042C0809100018F3F09F43DC0C82F8930C3
:1001B00008F0C8E0982F9C1B9093000190910701D4
:1001C00028E8922790930701882301F1809121016B
:1001D00090912201209102014C2F480F26FFADC0C3
:1001E000FC0128E031E05491D9015C932F5F3F4F2F
:1001F00031964E13F8CF2FEF2C0F30E02F5F3F4F8B
:10020000820F931F90932201809321016C2F88E02D
:1002100091E0C0D084E08C0FC83019F09FEF90932C
:1002200000018093010184E199B1967031F481500D
:10023000D9F71092240110921E01DF91CF910895F9
:100240002A8110921001998191110AC01092110116
:1002500020E131E082E0309322012093210192CF0E
:10026000953029F42093240120E131E0F4CF963039
:1002700009F04CC09B81913059F486E590E0909351
:1002800022018093210182E190E4909302017ACFD0
:10029000923041F484E390E0909322018093210115
:1002A00082E2F2CF9330F1F4211108C088E990E0A6
:1002B000909322018093210184E0E6CF213041F424
:1002C0008EE790E090932201809321018AE1DCCFB8
:1002D0002230D1F688E690E09093220180932101AC
:1002E00086E1D2CF913241F486E490E090932201EE
:1002F0008093210189E0C8CF923231F68CE990E0F9
:1003000090932201809321018DE1BECF983071F04E
:10031000993019F420932601A7CF9A3059F09B30D9
:1003200009F0A2CF9BE4909313019ECF26E231E027
:1003300081E091CF20E131E0FBCFE8E0F1E09C01EA
:10034000D9012F5F3F4F5C9151934213F9CF53CFA7
:10035000E9E6F0E0808182608083E89AE2E1F1E002
:100360008BE481838AE580830895A82FB92F80E0EC
:1003700090E041E050EA609530E009C02D9182277D
:100380009795879510F084279527305EC8F36F5FA7
:10039000A8F30895EADF8D939D930895CF93CFB787
:1003A000CF93C395499BE9F7499B09C0499B07C077
:1003B000499B05C0499B03C0499B01C0A3C0DF9373
:1003C000C0912001DD27C95DDE4F499B02C0DF914E
:1003D000EBCF2F930F931F9309B12FEF01FB20F960
:1003E0004F933F9319B14FEF012701FB21F93BE0F8
:1003F00031C04E7F012F19B1216028C0102F4D7FD1
:100400002260000009B129C04B7F2460012F000049
:1004100019B12BC019B1477F28602AC04F7E09B19E
:1004200020612CC04F7D19B120622FC04F7B09B1D4
:10043000206432C0422709B149934FEF00001027D2
:1004400011FB20F919B11670C9F1297F91F201272A
:1004500001FB21F909B1237F89F2315058F11027AE
:1004600011FB22F919B1277E79F2012701FB23F94B
:100470002F7C81F209B1102711FB24F92F7971F239
:1004800000C019B1012701FB25F92F7359F200C0F3
:1004900009B1102711FB26F9223040F200C019B132
:1004A000012701FB27F9243028F64F77206819B17E
:1004B0000000F9CF11E01CBB002719C03B5031955B
:1004C000C31BD04011E01CBB0881033CF9F00B3486
:1004D000E9F020911E011981110F1213EDCF4A810D
:1004E000441F093641F10D3211F0013E29F7009306
:1004F00025013F914F911F910F912F91DF91CCB327
:10050000C0FD4FCFCF91CFBFCF911895209125013E
:10051000222379F310912301112369F534306AF114
:100520003093230120931F01109120013BE0311BE8
:100530003093200122C0009123010130E4F40AE548
:100540004F7049F43091010134FD19C0009301014D
:10055000C7E0D1E018C03091120134FD10C0009303
:100560001201C3E1D1E00FC02795A8F45150A9F4BE
:10057000220F0000F9CF4AE503C042ED01C0432F2E
:10058000C4E1D0E032E01AB11660599A1AB90BB141
:1005900020E416E05F93012756E00BB9279520F47D
:1005A000515021F4220FF9CF012756E000003B5AA9
:1005B0000BB9D0F2279528F4515029F4220F0000EE
:1005C000F9CF012756E027950BB920F4515021F4BB
:1005D000220FF9CF012756E0299133230BB921F6D9
:1005E000097F10912401110FC651D0400BB911F0B1
:1005F00010931E0111E01CBB02601AB1197F402F3D
:10060000497F5F9100C000C00BB91AB94BB971CFD7
:10061000282F26952575880F8A7A282B822F869574
:100620008695837394E0299F900111242C7C822B62
:1006300082950895FC01808180768032D1F4818199
:10064000813041F484E091E0909322018093210174
:1006500083E00895823041F483E091E09093220199
:100660008093210181E008958A3019F48381809379
:10067000030180E0089514B88FE385B917B888B9ED
:100680001AB889EF8BB98FE295E70197F1F700C0AF
:10069000000088E19EE00FB6F894A8958093600072
:1006A0000FBE9093600054DE519A8AEFA895EFE652
:1006B000F7E13197F1F700C000008150B9F7519888
:1006C00078941FEFA8953BDD8091120184FFFACF4B
:1006D00083B19EDFC82F86B19BDFD82F99B1892FB8
:1006E000869586958E739170892B92DF282F2370C3
:1006F00030E02095309586E0220F331F8A95E1F790
:10070000C695C695C095C22BC093040110930501F0
:10071000D295D695D695D370D095D093060163E047
:0C07200084E091E0E6DCCECFF894FFCF3F
:02072C00FF5A72
:00000001FF
